:020000040800F2
:1000000070080020ED010008611F0008191E00089B
:100010005D1F0008590D0008C52100080000000000
:100020000000000000000000000000003520000873
:10003000F112000800000000911F0008692000086C
:10004000070200080702000807020008070200086C
:10005000070200080702000807020008070200085C
:10006000070200080702000807020008070200084C
:10007000070200080702000807020008070200083C
:10008000070200080702000807020008070200082C
:10009000070200080702000807020008070200081C
:1000A000070200080702000807020008070200080C
:1000B00007020008070200080702000807020008FC
:1000C00007020008070200080702000807020008EC
:1000D00007020008070200080702000807020008DC
:1000E000F5120008070200080702000807020008CE
:1000F00007020008070200080702000807020008BC
:1001000007020008070200080702000807020008AB
:10011000070200080702000807020008070200089B
:10012000070200080702000807020008070200088B
:1001300000F002F800F04AF80AA090E8000C8244AF
:100140008344AAF10107DA4501D100F03FF8AFF28C
:10015000090EBAE80F0013F0010F18BFFB1A43F0A5
:1001600001031847A0220000C0220000103A24BF5B
:1001700078C878C1FAD8520724BF30C830C144BF0C
:1001800004680C607047000000230024002500264E
:10019000103A28BF78C1FBD8520728BF30C148BFEA
:1001A0000B607047642900F08180782900F0BA80E4
:1001B000002070471FB59DE8030000F09FFB00F092
:1001C0008FF91FBD10B500F0F4F910BD00F024FA4E
:1001D0001146FFF7EFFF02F0BFF800F02BFB03B46E
:1001E000FFF7F0FF03BC00F0FBFC0000094880476C
:1001F00009480047FEE7FEE7FEE7FEE7FEE7FEE709
:10020000FEE7FEE7FEE7FEE704480549054A064B20
:1002100070470000CD200008310100087002002066
:100220007008002070040020700400200FB40449FE
:1002300010B503AA029800F025F910BC5DF814FB74
:10024000DC0000202DE9F0410E460446002020622B
:100250002046E168884730B3252805D0D4E901213C
:100260009047206A401CF2E7E16820460027884753
:10027000050018D0A5F14100192802D820354FF407
:1002800000673246294620462760FFF78BFF40B1C2
:10029000012804D0F61D26F007060836D8E7361DDB
:1002A000D6E72846DAE7206ABDE8F0812DE9F0417B
:1002B0000646002410687529314616A510D0AFF304
:1002C0000080002802DA404213A507E031688A075F
:1002D00001D512A502E0490704D511A5012401E0CA
:1002E000AFF3008000210A2206F1240709E0B0FBE9
:1002F000F2FCB0FBF2F302FB1C00303078541846DD
:10030000491C0028F3D123462A463046BDE8F04177
:1003100000F05EB8000000002D0000002B0000007F
:100320002000000070B504460D4621461068AFF36A
:1003300000802188090502D50F4A7A4402E00E4A5E
:100340007A440E32002104F1240305E000F00F0688
:100350000009965D5E54491C0028F7D120780023DF
:10036000000704D5702D02D009B1022311322046B6
:10037000BDE8704000F02CB8782000004FF000027B
:1003800000B5134694469646203922BFA0E80C508B
:10039000A0E80C50B1F12001BFF4F7AF090728BF66
:1003A000A0E80C5048BF0CC05DF804EB890028BFE2
:1003B00040F8042B08BF704748BF20F8022B11F00B
:1003C000804F18BF00F8012B704770477047704787
:1003D0002DE9F0470D4699469246044600F124085F
:1003E0000168880604D5E06921F01001216000E071
:1003F0000120A84201DD471B00E00027A1697A190E
:1004000002EB0900081AA0612078C00602D4204639
:10041000AFF30080002608E0D4E901211AF80600B5
:100420009047206A401C761C20624E45F4DB207801
:10043000C0060AD52046AFF3008006E0D4E90121CA
:1004400030209047206A401C2062381EA7F1010727
:10045000F4DC07E0D4E9012118F805009047206A90
:10046000401C2062281EA5F10105F3DC2046AFF3F5
:1004700000802078000602D50220BDE8F087012028
:10048000FBE70000074B70B50D467B4400F011F808
:100490000446284600F020F810B14FF0FF3070BD40
:1004A000204670BD431E000001694A1C02610878A5
:1004B000704700B58FB0CDE90131002105910549A4
:1004C0007944CDE9031011466846FFF7BBFE0FB033
:1004D00000BD0000E5FFFFFF007B00F080007047DB
:1004E00010B542485421FFF749FF41485421FFF716
:1004F00045FF40485421FFF741FF3F493B483C4AF4
:100500003F4B08603D490A603A491960531C036536
:10051000481C1065012008653B48344A39A17844DD
:1005200000F0EAF820B9384878440A3800F08BF92E
:1005300037482F4A35A1784400F0DEF820B9344816
:1005400078440A3800F07FF932482A4A2FA17844CB
:1005500000F0D2F820B92F4878440A3800F073F937
:1005600040232248DC000021224600F0A1F820B1FF
:1005700025487844543800F066F91D482246402347
:10058000002100F095F820B121487844543800F05B
:100590005AF9184822461023002100F089F8002853
:1005A00006D01C487844BDE81040563800F04BB9DE
:1005B00010BD104870B5006D20F001040B4800F02C
:1005C00013F90B4800F010F90A4800F00DF909E0A2
:1005D000206D20F00105204600F006F9204600F0CD
:1005E00040F82C46002CF3D170BD0000880000209C
:1005F000DC0000203001002000000020040000206A
:100600000800002072000000BC1E000077000000FF
:10061000A81E0000941E0000754600F04FF9AE467B
:1006200005006946534620F00700854618B020B5FE
:10063000FFF7EAFDBDE820404FF000064FF000074D
:100640004FF000084FF0000BAC46ACE8C009ACE836
:10065000C009ACE8C009ACE8C00921F007018D462B
:10066000704770B50446051F00F02CF90068002C97
:1006700014BF446870BD002C18BFAC423CBF20467C
:100680006468F8D301680A18AA4218BF456003D10C
:100690002A6805461144016028684119A1421CBF1F
:1006A0006C6070BD6168696021680844286070BD35
:1006B00070B5C468A50713D0650211D4B2F5807F68
:1006C00009D0B2F5007F06D0B2F5806F08D10123C2
:1006D00000F1240106E05D1E6FF07F46B54201D3B4
:1006E000012070BD0161C361416024F47061114358
:1006F000C160002070BD00002DE9F0410C46164697
:10070000070047D0104600F06FF82078611C612880
:100710000AD0722802D077283CD102E001250024BB
:1007200005E00225042402E0082448F2020511F83D
:10073000010B2B2806D0622809D011F8010C74286F
:100740000AD00BE045F0030544F00204EFE745F062
:10075000040544F00104EAE744F010043846214659
:1007600000F078F8411C15D00021316171604FF420
:100770000071F560F1617061200704D530460222F6
:10078000002100F019F9306D40F00100306530466D
:10079000BDE8F0810020FBE72DE9F0410D4606465B
:1007A000104C206DC10704D0410804D020F0010492
:1007B000F7E722460EE0542000F0CFF807000ED0F5
:1007C000206D47F001010843542120653846FFF7AA
:1007D000D5FD3A4629463046BDE8F0418CE7002079
:1007E000D6E70000880000202DE9F04704464FF0CE
:1007F00000094FF0FF37C568D4E90486A80707D081
:10080000204600F089F9304600F02EF8002802DA80
:100810003846BDE8F087280502D54046FFF721FF9E
:100820004C212046FFF7AAFD206D20F00100206535
:100830004846EEE710B50446AFF300802046BDE819
:100840001040FFF7CCBC10B500F0B0F9BDE8104087
:1008500000F0A6B90EB5CDE9000100F02AFA029029
:1008600069460120ABBE0EBD08B569460090022066
:10087000ABBE08BD1FB58DE8070069460520ABBEBD
:1008800004B010BD1FB58DE80F0069460620ABBE51
:10089000F6E708B5694600900920ABBE08BD1CB557
:1008A000CDE9000169460A20ABBE1CBD704708B502
:1008B000694600900C20ABBE08BD000000487047A0
:1008C00084010020004870478C0100207047704769
:1008D0007047704738B504460A4600206946AFF3B2
:1008E0000080002808BF38BD02460099204600F06D
:1008F00085F9012038BD012000F0D4B9F8B5AFF377
:100900000080054600200C46102000BF0646A819AE
:10091000A0420DD9324669460020AFF3008007009F
:1009200008BF00F0BFF90098A04218BF0546C419DF
:10093000FFF7C8FF05600746F01D20F007004619C5
:10094000284600F054F9B44208BFF8BDA21B314656
:100950003868BDE8F84000F051B970B50646FFF7B9
:10096000B1FF056806F10B0020F00704B4429CBFFC
:10097000002070BD2B466A68BAB11068A04210D33F
:1009800004F1080188423CBF5068586007D35168A1
:10099000101941601168091B016058601460101D36
:1009A00070BD13465268002AE7D121462846FFF75A
:1009B00091FF0028DED170BD2DE9F04104461646B6
:1009C0000D464769007B80072ED03846FFF761FF50
:1009D00050BB3EB3012E02D0022E25D104E02046AA
:1009E00000F026F905441DE03846FFF760FFE16896
:1009F000002841F01001E16005DA204600F058F8C7
:100A00000120BDE8F081C9030BD56268E16A91421B
:100A100000D81146A26911442269891A814200DD79
:100A200008460544002D01DA0220EAE7E16A606821
:100A3000E268814206D29103E06203D522F40031DC
:100A400041F01002A6690027AE4213DCE16A814240
:100A500001D90B4600E0034603EB060C2369ACEB1F
:100A6000030CAC4506DD814201D98C4600E084468A
:100A70009C4505D1A760276042F02000A5620DE0EB
:100A8000AD1BE669AE1B8142A66000D90846C01ABC
:100A9000281A20605819606022F02000034908409D
:100AA000E060002084F84870ABE70000BFCFD7FFBC
:100AB000C16821F4001141F08001C1600021816012
:100AC000016070472DE9F047814614460E464FF00D
:100AD000FF383248D5685769054209D03846A169C0
:100AE000FFF7DDFE002811DB2C48C0430540E56020
:100AF0002B46324649463846FFF7BCFEA16920F036
:100B00000042B21A11440028A16103D02046FFF729
:100B1000CFFF4046BDE8F08770B504460569C06A5E
:100B20006168884200D80846E16821F42011E1603C
:100B3000C90312D5A84208D02246411B2846FFF718
:100B4000C1FF10B14FF0FF3070BD0020E562C4E975
:100B50000150E06820F48030E060002070BD10B5E6
:100B60000446C06820F02000E060A16AA0698842C5
:100B70000DD02046FFF7D0FFE06820F4405040F051
:100B80001000E060A06AA0612069E062606044F249
:100B90004001E0688843E06010BD000010000200E2
:100BA000002801D000F01CB87047000010B50146C5
:100BB00002A000F05EF8012010BD0000534947522A
:100BC000545245443A2052656469726563743A2010
:100BD00063616E2774206F70656E3A20000000001C
:100BE00001491820ABBEFEE7260002007047002135
:100BF0000160C0E90110704710207047034640684B
:100C00008C46002818BF88423CBF03464068F8D392
:100C100018681844884207D00CF1030020F0070040
:100C2000001D411A521A0146081D0A60FFF719BD3E
:100C300010B50146C268900703D0900607D5886AB0
:100C40000AE000F05DF801210160881E10BD8B698B
:100C5000486818440B69C01A91F848301BB191F8E4
:100C60004910401A10BD1103FCD50028FADD401EC2
:100C700010BD70B505460C460A2000E06D1C00F062
:100C800037F835B128780028F8D102E0641C00F06C
:100C90002FF814B120780028F8D1BDE870400A2060
:100CA00000F026B810B500F02FF8BDE81040FFF7AF
:100CB00077BF10B5431C02E010F8011B71B181072A
:100CC000FAD14FF0013202C88C1A8C4314EAC211D7
:100CD000F9D0C01A0A0603D0C01E10BDC01A10BD3C
:100CE0000A0401D0801E10BD0902FCD0401E10BDB8
:100CF00008B569468DF800000320ABBE08BD0000B2
:100D0000004870478401002010B5012805D000215B
:100D100003A0FFF7AEFF012010BD09A1F8E7000016
:100D200053494752544D454D3A204F7574206F66D4
:100D30002068656170206D656D6F7279000000003C
:100D40003A2048656170206D656D6F727920636F20
:100D50007272757074656400FEE70000B0B50446F9
:100D6000052001F02DF910F01E0F05D00020002401
:100D700001F026F913E000BF052001F021F9C007BA
:100D8000FAD0651E002400BF002001F019F905F813
:100D9000010F0520013401F013F9C007F4D1E0B2CE
:100DA000B0BD0000B0B50C46054600BF052001F0FF
:100DB00007F98006FAD515F8011B002001F004FAA6
:100DC000013C200608BFB0BDF0E70000B0B5044606
:100DD000152001F0F5F810F01E0F05D0102001F0DD
:100DE000EFF8002413E000BF152001F0E9F8C00778
:100DF000FAD0651E002400BF102001F0E1F805F8CC
:100E0000010F1520013401F0DBF8C007F4D1E0B286
:100E1000B0BD0000B0B50C46054600BF152001F07E
:100E2000CFF88006FAD515F8011B102001F0CCF997
:100E3000013C200608BFB0BDF0E70000B0B5044695
:100E4000252001F0BDF810F01E0F05D0202001F084
:100E5000B7F8002413E000BF252001F0B1F8C00767
:100E6000FAD0651E002400BF202001F0A9F805F883
:100E7000010F2520013401F0A3F8C007F4D1E0B23E
:100E8000B0BD0000B0B50C46054600BF252001F0FE
:100E900097F88006FAD515F8011B202001F094F987
:100EA000013C200608BFB0BDF0E70000B0B5044625
:100EB000352001F085F810F01E0F05D0302001F02C
:100EC0007FF8002413E000BF352001F079F8C00757
:100ED000FAD0651E002400BF302001F071F805F83B
:100EE000010F3520013401F06BF8C007F4D1E0B2F6
:100EF000B0BD0000B0B50C46054600BF252001F08E
:100F00005FF88006FAD515F8011B302001F05CF976
:100F1000013C200608BFB0BDF0E70000B0B50446B4
:100F20000D2001F04DF810F01E0F05D0082001F043
:100F300047F8002413E000BF0D2001F041F8C0077E
:100F4000FAD0651E002400BF082001F039F805F82A
:100F5000010F0D20013401F033F8C007F4D1E0B2E5
:100F6000B0BD0000B0B50C46054600BF0D2001F035
:100F700027F88006FAD515F8011B082001F024F99E
:100F8000013C200608BFB0BDF0E70000B0B5044644
:100F90001D2001F015F810F01E0F05D0182001F0EB
:100FA0000FF8002413E000BF1D2001F009F8C0076E
:100FB000FAD0651E002400BF182001F001F805F8E2
:100FC000010F1D20013400F0FBFFC007F4D1E0B297
:100FD000B0BD0000B0B50C46054600BF1D2000F0B6
:100FE000EFFF8006FAD515F8011B182001F0ECF888
:100FF000013C200608BFB0BDF0E70000B0B50446D4
:101000002D2000F0DDFF10F01E0F05D0282000F08D
:10101000D7FF002413E000BF2D2000F0D1FFC00750
:10102000FAD0651E002400BF282000F0C9FF05F893
:10103000010F2D20013400F0C3FFC007F4D1E0B24E
:10104000B0BD0000B0B50C46054600BF2D2000F035
:10105000B7FF8006FAD515F8011B282001F0B4F877
:10106000013C200608BFB0BDF0E70000B0B5044663
:101070003D2000F0A5FF10F01E0F05D0382000F035
:101080009FFF002413E000BF3D2000F099FFC00740
:10109000FAD0651E002400BF382000F091FF05F84B
:1010A000010F3D20013400F08BFFC007F4D1E0B206
:1010B000B0BD0000B0B50C46054600BF3D2000F0B5
:1010C0007FFF8006FAD515F8011B382001F07CF867
:1010D000013C200608BFB0BDF0E700002DE9F04F4D
:1010E00081B040F2580640F2480A40F2300840F21F
:1010F000380940F2400740F2680B0025C2F20006B2
:10110000C2F2000AC2F20008C2F20009C2F20007ED
:10111000C2F2000B705D802101F056F81AF805004C
:10112000802101F051F8142001F038F9705D802120
:1011300001F04AF818F80500112101F045F819F8F6
:101140000500002101F040F8785DC12101F03CF874
:10115000705D032101F038F81AF80500072101F04D
:1011600033F81BF805000B2101F02EF87C5D2046BA
:1011700000F026FF40F00601204601F025F8013579
:10118000082DC7D14F2000F01BFFA8B340F2500735
:1011900040F2700840F2600904460025C2F20007E0
:1011A00041A6C2F20008C2F200090FE008EB0500F8
:1011B000007800F005FF785D00F002FF024630463F
:1011C0002946FFF733F80135082D11D024FA05F030
:1011D000C007F8D0785D00F0F3FE022806D00C2896
:1011E000E4D00628E7D109EB0500E1E77819DFE74D
:1011F00030A02146FFF71AF840F2042040F6A5512E
:1012000040F6657640F6D57541F2450441F2B50CDD
:10121000C2F20000C0F6000140F6156240F6856398
:1012200040F6F567C0F60006C0F60005C0F60004FB
:10123000C0F6000CC0F60002C0F60003C0F60007BE
:1012400080E88E00C0E90465C0E9064C40F2E41075
:1012500040F65D5140F61D7640F68D7540F6FD7402
:1012600041F26D0CC2F20000C0F6000140F6CD5212
:1012700040F63D6340F6AD67C0F60006C0F60005D7
:10128000C0F60004C0F6000CC0F60002C0F6000371
:10129000C0F6000780E88E00C0E90465C0E9064C8E
:1012A00001B0BDE8F08F00BF5B25645D5B25585D34
:1012B0000D0A00007373723A5B25585D0D0A000039
:1012C00010B541F20004C4F2010420464FF400417D
:1012D000012200F09BF920460121012200F096F93D
:1012E00020464FF48041012200F090F910BD00002B
:1012F0007047000080B54FF4005000F085F880BDC5
:10130000EFF3108072B600BFFEE70000B0B50446F0
:1013100000F082F9054640F28000C2F20000007839
:10132000611C18BF044400BF00F076F9401BA042C6
:10133000FAD3B0BD2DE9F04782B0B0F5005F5FD1C0
:101340004F2000F03DFE40F2500A40F2600640F2AD
:10135000700740F278050024C2F2000A4FF001083D
:1013600041F25009C2F20006C2F20007C2F20005C3
:101370008DF8070003E000BF0134082C40D09DF831
:101380000700E040C007F7D01AF8040000F018FE8C
:1013900000F03F008DF807009DF80700C0072FD12F
:1013A0009DF807000C28E7D808FA00F010EA090FAA
:1013B000E2D000BF305D00F003FEC007DCD00520A6
:1013C00000F0FEFD10F01E0F14D0385D00F0F8FDA7
:1013D000F0E700BF385D00F0F3FD8DF8060000BFB8
:1013E000305D00F0EDFD8006FAD5285D9DF8061011
:1013F00000F0EAFE305D00F0E3FDC007EAD1D9E776
:1014000002B0BDE8F087000080B540F21441C4F29C
:1014100001010A68024208BF80BD0860FFF78AFF29
:1014200080BD00002DE9F04F83B00C68002C00F067
:10143000EA80A0F18042A2F5843240F2004E4FEAE9
:10144000B22241F60047C4F2010E0092C4F2010735
:10145000062200254FF001094FF0000B4FF0000A63
:10146000B84208BF0522019209E000BF0C680BF1E9
:10147000010B34FA0BF205F1040500F0C48009FAFF
:101480000BF814EA080CF1D04C684FF6FF72C1F269
:101490001002944210DC122C50D8DFE804F0330A1A
:1014A00041454F4F4F4F4F4F4F4F4F4F4F4F4F486B
:1014B0004C00D1F80CA041E04FF6FF72C1F22102BE
:1014C00094420FDC0022C1F2110294421AD0002291
:1014D000C1F21202944215D00022C1F221029442BC
:1014E00010D02BE00022C1F2220294420AD0002246
:1014F000C1F23102944205D00022C1F2320294427C
:101500001CD100BF8C6844B1012C14BFC0F81480FA
:10151000C0F810804FF0080A10E04FF0040A0DE008
:10152000CC6804F1080A09E04FF0000A06E0CC6834
:1015300004F1040A02E0CC6804F10C0A2C460746C8
:10154000BCF5807F24BF203C04373A680F2303FAA0
:1015500004F6B2430AFA04F422433A60CA79D20686
:101560007FF584AF41F21804C4F2020422684FF6FA
:10157000084842F0010222602268CFF6FF7802F0AC
:1015800001020292029A2BF00302724452F80840C0
:1015900005F00C0603FA06F7009BBC43019F052BE0
:1015A00038BF1F4607FA06F6344342F808404C6835
:1015B000E203DEF8002054BF22EA0C0742EA0C07DF
:1015C000A203CEF80070DEF8042054BF22EA0C0714
:1015D00042EA0C07E202CEF80470DEF8082054BF9D
:1015E00022EA0C0742EA0C07A20240F20C44CEF8B1
:1015F0000870C4F20104226854BF22EA0C0242EAD5
:101600000C02226032E703B0BDE8F08F002A08BF69
:10161000090401617047000040F26820C2F2000036
:101620000068704740F2800040F26821C2F200007A
:10163000C2F2000100780A68104408607047000098
:1016400080B542F20000C4F20200016841F01001CE
:101650000160032000F066F80F2000F005F800F0AC
:101660002BF8002080BD0000B0B540F28002C2F22D
:10167000000240F22C011278C2F200014FF47A739A
:101680000968B3FBF2F20446B1FBF2F1084600F040
:10169000E9FA0F2C4FF001050CD858B94FF0FF3084
:1016A00021460022002500F02DF840F28400C2F20D
:1016B000000004602846B0BD82B041F21800C4F2B8
:1016C00002000168022241F001010160016801F09D
:1016D000010101910199416841F0805141604068E8
:1016E00000F08050009000980420C4F201000168CE
:1016F00062F31A61016002B07047000080B500F02B
:10170000ADFD80BD70B514460D46064600F0B6FD31
:101710002946224600F026FC0146304600F0B6FD80
:1017200070BD000080B500F0C3FD80BD2DE9F04321
:1017300081B0002800F0878042F20008C4F202085D
:101740000446D8F800000D4600F0070088420CD28D
:10175000D8F8000020F007002843C8F80000D8F8A7
:10176000000000F00700A8426DD1206841F2040992
:101770008107C4F2020917D5410705D5D9F8001031
:1017800041F4E061C9F80010010705D5D9F800104F
:1017900041F46051C9F80010D9F80010A26821F096
:1017A000F0011143C9F80010C00745D1D8F8000076
:1017B00000F00700A8420CD9D8F8000020F007007C
:1017C0002843C8F80000D8F8000000F00700A8423D
:1017D00039D12068410707D5D9F80010E26821F413
:1017E000E0611143C9F80010000708D5D9F80000DE
:1017F000216920F4605040EAC100C9F8000000F0FF
:1018000077F8D9F8001042F2EA32C1F30311C0F6BA
:101810000002515C40F22C0220FA01F140F28400F7
:10182000C2F200000068C2F200021160FFF71CFF64
:10183000002001B0BDE8F0836068012807D159F8A5
:10184000041C89030CD4012001B0BDE8F08359F8D1
:10185000041C022802D18901F5D501E08907F2D5DF
:10186000D9F8001021F003010843C9F80000FFF780
:10187000D3FE064641F28837D9F80000616800F0CF
:101880000C00B0EB810F91D0FFF7C6FE801BB84271
:10189000F2D9032001B0BDE8F083000040F22C0033
:1018A000C2F200000068704780B5FFF7F7FF41F211
:1018B0000401C4F20201096842F2FA32C1F30221C2
:1018C000C0F60002515CC84080BD000080B5FFF743
:1018D000E5FF41F20401C4F20201096842F2FA3262
:1018E000C1F3C221C0F60002515CC84080BD0000B7
:1018F00041F2040CC4F2020CDCF8003003F00C00DE
:10190000082841F20020C0F27A0018BF7047C3F3E4
:1019100083420AA18A5CD90305D440F60010C0F2C4
:101920003D0050437047DCF8001008A3C1F340416C
:10193000595C5043B0FBF1F0704700BF020304054F
:10194000060708090A0B0C0D0E0F1010010200000B
:101950002DE9F04182B0002800F0C48004460078F0
:1019600041F20006C007C4F2020643D0706800F0DE
:101970000C00042817D0706800F00C00082802D171
:101980007068C0030FD465689DB1B5F5803F06D07F
:101990003068B5F5A02F0DD140F48020306030685C
:1019A00040F480300CE03068800323D5606808BBC9
:1019B00098E0306820F480303060306820F4802077
:1019C0003060FFF729FE002D054610D030688003F7
:1019D00010D4FFF721FE401B6428F7D908E100BFAF
:1019E000FFF71AFE401B64284FF0030077D83068D9
:1019F0008003F5D42078800718D5706810F00C0F9C
:101A000007D0706800F00C00082826D17068C00369
:101A100023D43068800702D52069012862D130685C
:101A2000616920F0F80040EAC100306020780007CA
:101A30003DD5A06938B30020C4F242200121C0F88E
:101A40008014FFF7E9FD0546706A80072DD4FFF783
:101A5000E3FD401B0228F7D9CAE02069002840F2C4
:101A60000000C4F2422000F09A8001210160FFF7DB
:101A7000D3FD054630688007D1D4FFF7CDFD401B6C
:101A80000228F7D9B4E00020C4F242200021C0F8B7
:101A90008014FFF7C1FD0546706A800707D5FFF780
:101AA000BBFD401B0228F7D9A2E000F073FA2078B2
:101AB00040071BD4E5698DB1706800F00C00082860
:101AC0004CD1012D0ED07068216A00F480328A4218
:101AD00008D1616A00F47010884203D1002002B07E
:101AE000BDE8F081012002B0BDE8F081F069C000DE
:101AF0000BD4F0694FF0010840F08050F061F069BC
:101B000000F080500190019801E04FF0000847F28A
:101B10000007C4F200073868C00510D4386840F4E4
:101B200080703860FFF778FD054600BF3868C00553
:101B300005D4FFF771FD401B6428F7D958E0E5682C
:101B4000002D3DD0012D05D0306A052D39D140F052
:101B500004003062306A40F0010038E00027C4F22F
:101B6000422700203866FFF757FD022D05460BD1AE
:101B70003068800154D5FFF74FFD401B02284FF01D
:101B80000300F5D9ABE700BF30688001A6D5FFF7A9
:101B900043FD401B02284FF00300F5D99FE70021C9
:101BA0000160FFF739FD0546306880077FF53EAFDD
:101BB000FFF732FD401B02284FF00300F4D98EE7F7
:101BC000306A20F001003062306A20F00400306298
:101BD000FFF722FD002D054641F2883714D000BFE3
:101BE000306A800713D4FFF717FD401BB842F7D9BE
:101BF000032002B0BDE8F081FFF70EFD401BB842A4
:101C00004FF003003FF66BAF306A8007F4D4B8F1B1
:101C1000000F3FF44FAFF06920F08050F06149E7CA
:101C2000206AB0F5803F05D17168A26821F40031C7
:101C3000114371607168626A21F4741110430843A2
:101C4000706001203866FFF7E7FC044630688001C9
:101C50003FF544AFFFF7E0FC001B02284FF0030004
:101C6000F4D93CE780B500F0E7F980BD002804BF57
:101C70000120704710B5044690F83D0028B90020B7
:101C800084F83C00204600F021F8242084F83D0030
:101C90002068C16821F40051C160204600F018FAA4
:101CA0002068016921F490410161416921F02A0114
:101CB0004161C16841F40051C160002020212064CD
:101CC00084F83D1084F83E1010BD000070B586B059
:101CD000002640F600040596CDE90366C4F201042F
:101CE000006804F540518842029601D006B070BDEC
:101CF00041F21800C4F20200016802AD41F48041D3
:101D00000160016801F4804101910199016841F08D
:101D1000040101600068294600F004000190019868
:101D20004FF400700290022003900320059020469B
:101D3000FFF778FB4FF48060CDE902062046294684
:101D40000496FFF76FFB06B070BD00002DE9F0436D
:101D500081B0044690F83D0020280BD10E460029A2
:101D60004FF0010055D01746002A52D094F83C009D
:101D7000012803D1022001B0BDE8F083012084F8DE
:101D80003C004FF0000921201D46C4F8409084F823
:101D90003D00FFF741FCA784E784A1680746B1F541
:101DA000805F07D1206900281CBF30464E46B046F0
:101DB000064601E04FF0000884F83C9007E000BFC1
:101DC00016F8010B21684860E08C0138E084E08C53
:101DD00080B1204680213A462B4600F0C1F980B9F7
:101DE000002EEDD138F8020B21686FF35F204860B8
:101DF0000026E9E7204640213A462B4600F0B0F99C
:101E000018B1032001B0BDE8F083202084F83D0024
:101E1000002001B0BDE8F083FEE700002DE9F04F9F
:101E200085B04FF0000941F21800CDE90399CDE9E2
:101E30000199C4F20200016841F2000841F010016A
:101E400001600168C4F2010801F0100100910099DD
:101E50000168002241F004010160016801F0040101
:101E600000910099016841F00801016000684CF29E
:101E7000811100F00800009000984046FFF7C6FB73
:101E8000A8F50066304640F2FF11002240F2FF1B29
:101E9000FFF7BCFBA8F58065284640F27B41002295
:101EA000FFF7B4FB4FF4005001900020C1F2210075
:101EB00001AF02900124404639460394FFF7B2FA7D
:101EC0004CF2011001A981E811024FF0020A4046CC
:101ED0003946CDF810A0FFF7A5FA30463946CDE9CE
:101EE00001B4CDE9039AFFF79DFA40F27B4001A9C6
:101EF00081E8110628463946FFF794FA802001A9A7
:101F000081E81102404639460494FFF78BFA2820F5
:101F100000210022FFF7F6FB2820FFF7EFFB05B0BA
:101F2000BDE8F08F80B540F2242043F60001C2F2F4
:101F30000000C4F2010100234FF00C0C4FF4E13219
:101F400080E80E00C0E90333C0E905C3C361FFF7B1
:101F50008DFE002818BFFFF7D3F980BDFEE7000013
:101F6000FEE7000000F0070080F00703042B28BF05
:101F700004234FF0FF3C03380CFA03F338BF002072
:101F8000994381400CFA00F022EA000008437047B0
:101F90007047000081B040F22C00C2F200000068DF
:101FA00044F6D351C1F26201A0FB0101480A00903E
:101FB00000BF0098411E00280091F9D101B0704780
:101FC000B0B541F20004C4F2010440F20C01054630
:101FD000A4F50060C2F20001FFF724FA4FF61040AA
:101FE0000021CFF6FF70C0F2FF41215045EA0521E4
:101FF00040F2FB421140215020464FF400410022A4
:10200000FFF704FB204601210022FFF7FFFA4FF6FD
:102010000800CFF6FF702558204601210122FFF766
:10202000F5FA20464FF400410122FFF7EFFAE8B23B
:10203000B0BD000070470000B0B501380024B4EB1B
:10204000106F1CBF0120B0BD4EF21005CEF200058E
:1020500068604FF0FF300F2100F018F90720AC60E6
:1020600028602046B0BD000080B5FFF7DBFA80BDD8
:1020700070B590B006AC20462821FEF77FF901200C
:102080000A901020002502260B904FF4601006964F
:10209000CDE90D650F9020460595CDE90355CDE9B5
:1020A0000155FFF755FC78B90F20CDE901064FF433
:1020B00080600395CDE9040501A80221FFF736FBF6
:1020C000002804BF10B070BDFFF71AF97047000078
:1020D00010B504460068D4E902C22369016921F4FD
:1020E000405111430161616943EA0C021143C26826
:1020F00041F20C639A431143C1604169A26921F422
:102100004071114343F60002C4F201029042416162
:1021100002D0FFF7C9FB01E0FFF7D8FB6268192185
:1021200048439100B0FBF1F048F21F51C5F2EB11AA
:10213000A0FB01235A096FF0630302FB0300322363
:1021400003EB0010A0FB0101F02303EA5113206808
:1021500003EB0212C1F343111144816010BD000072
:102160002DE9F0410446006800680840884202D129
:102170000020BDE8F0811D460E4690465F1C04E03D
:10218000206800683040B042F2D0002FF8D02DB166
:10219000FFF742FAA0EB0800A842F1D92068C16815
:1021A00021F4D071C160416921F001014161202019
:1021B00084F83D0084F83E00002084F83C000320B1
:1021C000BDE8F081FEE7000010B582B041F20004E6
:1021D000C4F201048DF807008DF8061020464FF474
:1021E00000410022FFF712FA40F21C01A4F5006042
:1021F000C2F20001FFF716F94FF610400021CFF6AA
:10220000FF70C0F2FF4121509DF807109DF8072094
:1022100001F0FB0102F0040241EA022121504FF6D5
:102220001000CFF6FF704FF47F0121509DF806108B
:102230000022215020464FF48041FFF7E7F9204665
:102240004FF480410122FFF7E1F920464FF40041AD
:102250000122FFF7DBF902B010BD0000002848BFE3
:10226000704700F01F01012202FA01F14EF2001244
:102270004009CEF2000242F8201070474EF60C5092
:10228000CEF200000068C0F3022070474EF61453EF
:1022900000F00F02CEF2000309011A4400F160437E
:1022A000B0F1FF3FC8BF03F56442117070470000F2
:1022B0004EF60C51CEF200010A684FF6FF031A40A9
:1022C00060F30A2242F0806040F0FD7008607047C1
:1022D00010B582B040F22421C2F200010968044620
:1022E00008684006FCD540F22420C2F200000DF13F
:1022F000070101224FF0FF338DF80740FFF726FD5D
:10230000204602B010BD000010B540F60004C4F233
:10231000010420464FF480710122FFF777F9C820AD
:10232000FEF7F4FF20464FF480710022FFF76EF9AC
:10233000C820FEF7EBFF20464FF480710122FFF723
:1023400065F9C820FEF7E2FF20464FF480710022B5
:10235000FFF75CF910BD0000FFF772F9FFF788FE88
:10236000FFF75CFDFFF7DEFDFEF7AAFF1420FEF786
:10237000CDFFFEF7B3FEFFF7C7FF41F20004C4F242
:102380000104204680210022FFF740F920464FF447
:1023900080710022FFF73AF9FEE7000081B0ADF846
:1023A000020000BFBDF80200411E0028ADF8021077
:1023B000F8D101B0704730313233343536373839DF
:1023C0004142434445464030580030313233343581
:1023D00036373839616263646566403078003A7434
:1023E00074003A7474003A74740000000000000035
:1023F00000000102030406070809000000000102B2
:1024000003040000282400080000002088000000C9
:102410006C010008B024000888000020E8070000D4
:10242000880100080000000000000000000000001B
:1024300000000000FF00000000000000000000009D
:1024400000000000FF00000001000000000000008C
:10245000020000000024F400001020300818283882
:102460000111213109192939021222320A1A2A3A94
:102470000111213109192939021222320A1A2A3A84
:10248000031323330B1B2B3B051525350D1D2D3D4C
:10249000041424340C1C2C3C00102030081828385C
:1024A000001020300818283801000000100000003B
:0400000508000131BD
:00000001FF
